{"abi":[{"type":"function","name":"bestScore","inputs":[{"name":"","type":"address","internalType":"address"}],"outputs":[{"name":"","type":"uint256","internalType":"uint256"}],"stateMutability":"view"},{"type":"function","name":"cashOut","inputs":[],"outputs":[],"stateMutability":"nonpayable"},{"type":"function","name":"getSession","inputs":[{"name":"player","type":"address","internalType":"address"}],"outputs":[{"name":"level","type":"uint8","internalType":"uint8"},{"name":"alive","type":"bool","internalType":"bool"},{"name":"nonce","type":"uint64","internalType":"uint64"},{"name":"points","type":"uint256","internalType":"uint256"}],"stateMutability":"view"},{"type":"function","name":"globalBest","inputs":[],"outputs":[{"name":"","type":"uint256","internalType":"uint256"}],"stateMutability":"view"},{"type":"function","name":"globalBestPlayer","inputs":[],"outputs":[{"name":"","type":"address","internalType":"address"}],"stateMutability":"view"},{"type":"function","name":"sessions","inputs":[{"name":"","type":"address","internalType":"address"}],"outputs":[{"name":"level","type":"uint8","internalType":"uint8"},{"name":"alive","type":"bool","internalType":"bool"},{"name":"nonce","type":"uint64","internalType":"uint64"},{"name":"points","type":"uint256","internalType":"uint256"}],"stateMutability":"view"},{"type":"function","name":"spin","inputs":[],"outputs":[],"stateMutability":"nonpayable"},{"type":"function","name":"start","inputs":[],"outputs":[],"stateMutability":"nonpayable"},{"type":"event","name":"CashedOut","inputs":[{"name":"player","type":"address","indexed":true,"internalType":"address"},{"name":"points","type":"uint256","indexed":false,"internalType":"uint256"},{"name":"bestScore","type":"uint256","indexed":false,"internalType":"uint256"}],"anonymous":false},{"type":"event","name":"GameOver","inputs":[{"name":"player","type":"address","indexed":true,"internalType":"address"},{"name":"atLevel","type":"uint8","indexed":false,"internalType":"uint8"},{"name":"finalPoints","type":"uint256","indexed":false,"internalType":"uint256"}],"anonymous":false},{"type":"event","name":"GameStarted","inputs":[{"name":"player","type":"address","indexed":true,"internalType":"address"},{"name":"level","type":"uint8","indexed":false,"internalType":"uint8"},{"name":"points","type":"uint256","indexed":false,"internalType":"uint256"},{"name":"nonce","type":"uint64","indexed":false,"internalType":"uint64"}],"anonymous":false},{"type":"event","name":"Spun","inputs":[{"name":"player","type":"address","indexed":true,"internalType":"address"},{"name":"levelBefore","type":"uint8","indexed":false,"internalType":"uint8"},{"name":"bullets","type":"uint8","indexed":false,"internalType":"uint8"},{"name":"roll","type":"uint8","indexed":false,"internalType":"uint8"},{"name":"dead","type":"bool","indexed":false,"internalType":"bool"},{"name":"pointsAfter","type":"uint256","indexed":false,"internalType":"uint256"},{"name":"levelAfter","type":"uint8","indexed":false,"internalType":"uint8"}],"anonymous":false},{"type":"error","name":"NothingToCash","inputs":[]},{"type":"error","name":"SessionNotActive","inputs":[]}],"bytecode":{"object":"0x6080604052348015600e575f5ffd5b50610f068061001c5f395ff3fe608060405234801561000f575f5ffd5b5060043610610086575f3560e01c80638c8e13b9116100595780638c8e13b914610103578063be9a655514610136578063dc0c695f14610140578063f0acd7d51461017057610086565b80630cd759a31461008a578063431a1b97146100a857806346eb3769146100db578063793cd71e146100f9575b5f5ffd5b61009261017a565b60405161009f91906109aa565b60405180910390f35b6100c260048036038101906100bd9190610a21565b610180565b6040516100d29493929190610aa3565b60405180910390f35b6100e36101d6565b6040516100f09190610af5565b60405180910390f35b6101016101fb565b005b61011d60048036038101906101189190610a21565b6104ca565b60405161012d9493929190610aa3565b60405180910390f35b61013e61055b565b005b61015a60048036038101906101559190610a21565b61069f565b60405161016791906109aa565b60405180910390f35b6101786106b4565b005b60025481565b5f602052805f5260405f205f91509050805f015f9054906101000a900460ff1690805f0160019054906101000a900460ff1690805f0160029054906101000a900467ffffffffffffffff16908060010154905084565b60035f9054906101000a900473ffffffffffffffffffffffffffffffffffffffff1681565b5f5f5f3373ffffffffffffffffffffffffffffffffffffffff1673ffffffffffffffffffffffffffffffffffffffff1681526020019081526020015f209050805f0160019054906101000a900460ff16158061026857505f815f015f9054906101000a900460ff1660ff16145b1561029f576040517f27406db900000000000000000000000000000000000000000000000000000000815260040160405180910390fd5b600a8160010154116102dd576040517f9c91b43800000000000000000000000000000000000000000000000000000000815260040160405180910390fd5b5f816001015490505f825f0160016101000a81548160ff0219169083151502179055503373ffffffffffffffffffffffffffffffffffffffff167fdc29c424355b928cda41b966165f433d23c816a571cb7f25442b48d404d364e2835f015f9054906101000a900460ff1683604051610357929190610b0e565b60405180910390a260015f3373ffffffffffffffffffffffffffffffffffffffff1673ffffffffffffffffffffffffffffffffffffffff1681526020019081526020015f20548111156103e7578060015f3373ffffffffffffffffffffffffffffffffffffffff1673ffffffffffffffffffffffffffffffffffffffff1681526020019081526020015f20819055505b60025481111561043957806002819055503360035f6101000a81548173ffffffffffffffffffffffffffffffffffffffff021916908373ffffffffffffffffffffffffffffffffffffffff1602179055505b3373ffffffffffffffffffffffffffffffffffffffff167f1c1db2792f0323a7dd4184610c505d7367ceea647bc855ecac1a7c89304d2ff78260015f3373ffffffffffffffffffffffffffffffffffffffff1673ffffffffffffffffffffffffffffffffffffffff1681526020019081526020015f20546040516104be929190610b35565b60405180910390a25050565b5f5f5f5f5f5f5f8773ffffffffffffffffffffffffffffffffffffffff1673ffffffffffffffffffffffffffffffffffffffff1681526020019081526020015f209050805f015f9054906101000a900460ff16815f0160019054906101000a900460ff16825f0160029054906101000a900467ffffffffffffffff1683600101549450945094509450509193509193565b5f5f5f3373ffffffffffffffffffffffffffffffffffffffff1673ffffffffffffffffffffffffffffffffffffffff1681526020019081526020015f2090506001815f015f6101000a81548160ff021916908360ff160217905550600a81600101819055506001815f0160016101000a81548160ff0219169083151502179055506001815f0160028282829054906101000a900467ffffffffffffffff160192506101000a81548167ffffffffffffffff021916908367ffffffffffffffff1602179055503373ffffffffffffffffffffffffffffffffffffffff167f243e03389a889305f7fef7109044e81585b1e4c66386ece5da44df82ec335450825f015f9054906101000a900460ff168360010154845f0160029054906101000a900467ffffffffffffffff1660405161069493929190610b5c565b60405180910390a250565b6001602052805f5260405f205f915090505481565b5f5f5f3373ffffffffffffffffffffffffffffffffffffffff1673ffffffffffffffffffffffffffffffffffffffff1681526020019081526020015f209050805f0160019054906101000a900460ff16158061072157505f815f015f9054906101000a900460ff1660ff16145b15610758576040517f27406db900000000000000000000000000000000000000000000000000000000815260040160405180910390fd5b5f815f015f9054906101000a900460ff1690505f60058260ff161161077d5781610780565b60055b90505f4490505f81036107a05760014361079a9190610bbe565b405f1c90505b5f814333875f0160029054906101000a900467ffffffffffffffff166040516020016107cf9493929190610c8a565b604051602081830303815290604052805190602001205f1c90505f6006826107f79190610d04565b90505f8460ff168260ff1610905080156108dd575f87600101819055505f875f0160016101000a81548160ff0219169083151502179055503373ffffffffffffffffffffffffffffffffffffffff167fb41a4832568236f3093fa71e8e7ea6d67e2374867e18481ba83507544dad312d87878560015f8c60405161088096959493929190610d76565b60405180910390a23373ffffffffffffffffffffffffffffffffffffffff167fdc29c424355b928cda41b966165f433d23c816a571cb7f25442b48d404d364e2875f6040516108d0929190610dd5565b60405180910390a2610989565b600a87600101546108ee9190610dfc565b87600101819055506001866109039190610e3d565b875f015f6101000a81548160ff021916908360ff1602179055503373ffffffffffffffffffffffffffffffffffffffff167fb41a4832568236f3093fa71e8e7ea6d67e2374867e18481ba83507544dad312d8787855f8c600101548d5f015f9054906101000a900460ff1660405161098096959493929190610e71565b60405180910390a25b50505050505050565b5f819050919050565b6109a481610992565b82525050565b5f6020820190506109bd5f83018461099b565b92915050565b5f5ffd5b5f73ffffffffffffffffffffffffffffffffffffffff82169050919050565b5f6109f0826109c7565b9050919050565b610a00816109e6565b8114610a0a575f5ffd5b50565b5f81359050610a1b816109f7565b92915050565b5f60208284031215610a3657610a356109c3565b5b5f610a4384828501610a0d565b91505092915050565b5f60ff82169050919050565b610a6181610a4c565b82525050565b5f8115159050919050565b610a7b81610a67565b82525050565b5f67ffffffffffffffff82169050919050565b610a9d81610a81565b82525050565b5f608082019050610ab65f830187610a58565b610ac36020830186610a72565b610ad06040830185610a94565b610add606083018461099b565b95945050505050565b610aef816109e6565b82525050565b5f602082019050610b085f830184610ae6565b92915050565b5f604082019050610b215f830185610a58565b610b2e602083018461099b565b9392505050565b5f604082019050610b485f83018561099b565b610b55602083018461099b565b9392505050565b5f606082019050610b6f5f830186610a58565b610b7c602083018561099b565b610b896040830184610a94565b949350505050565b7f4e487b71000000000000000000000000000000000000000000000000000000005f52601160045260245ffd5b5f610bc882610992565b9150610bd383610992565b9250828203905081811115610beb57610bea610b91565b5b92915050565b5f819050919050565b610c0b610c0682610992565b610bf1565b82525050565b5f8160601b9050919050565b5f610c2782610c11565b9050919050565b5f610c3882610c1d565b9050919050565b610c50610c4b826109e6565b610c2e565b82525050565b5f8160c01b9050919050565b5f610c6c82610c56565b9050919050565b610c84610c7f82610a81565b610c62565b82525050565b5f610c958287610bfa565b602082019150610ca58286610bfa565b602082019150610cb58285610c3f565b601482019150610cc58284610c73565b60088201915081905095945050505050565b7f4e487b71000000000000000000000000000000000000000000000000000000005f52601260045260245ffd5b5f610d0e82610992565b9150610d1983610992565b925082610d2957610d28610cd7565b5b828206905092915050565b5f819050919050565b5f819050919050565b5f610d60610d5b610d5684610d34565b610d3d565b610992565b9050919050565b610d7081610d46565b82525050565b5f60c082019050610d895f830189610a58565b610d966020830188610a58565b610da36040830187610a58565b610db06060830186610a72565b610dbd6080830185610d67565b610dca60a0830184610a58565b979650505050505050565b5f604082019050610de85f830185610a58565b610df56020830184610d67565b9392505050565b5f610e0682610992565b9150610e1183610992565b9250828202610e1f81610992565b91508282048414831517610e3657610e35610b91565b5b5092915050565b5f610e4782610a4c565b9150610e5283610a4c565b9250828201905060ff811115610e6b57610e6a610b91565b5b92915050565b5f60c082019050610e845f830189610a58565b610e916020830188610a58565b610e9e6040830187610a58565b610eab6060830186610a72565b610eb8608083018561099b565b610ec560a0830184610a58565b97965050505050505056fea2646970667358221220d170d11ca5deda51a49160296fffb041d14503badbed3cb4ec91ef75284798d064736f6c634300081e0033","linkReferences":{}},"methodIdentifiers":{"bestScore(address)":"dc0c695f","cashOut()":"793cd71e","getSession(address)":"8c8e13b9","globalBest()":"0cd759a3","globalBestPlayer()":"46eb3769","sessions(address)":"431a1b97","spin()":"f0acd7d5","start()":"be9a6555"},"id":16}